{
  "_format": "hh-sol-artifact-1",
  "contractName": "LoanVistaScore",
  "sourceName": "src/LoanVistaScore.sol",
  "address": "",
  "abi": [
    {
      "inputs": [],
      "stateMutability": "nonpayable",
      "type": "constructor"
    },
    {
      "anonymous": false,
      "inputs": [
        {
          "indexed": true,
          "internalType": "address",
          "name": "previousOwner",
          "type": "address"
        },
        {
          "indexed": true,
          "internalType": "address",
          "name": "newOwner",
          "type": "address"
        }
      ],
      "name": "OwnershipTransferStarted",
      "type": "event"
    },
    {
      "anonymous": false,
      "inputs": [
        {
          "indexed": true,
          "internalType": "address",
          "name": "previousOwner",
          "type": "address"
        },
        {
          "indexed": true,
          "internalType": "address",
          "name": "newOwner",
          "type": "address"
        }
      ],
      "name": "OwnershipTransferred",
      "type": "event"
    },
    {
      "inputs": [],
      "name": "acceptOwnership",
      "outputs": [],
      "stateMutability": "nonpayable",
      "type": "function"
    },
    {
      "inputs": [
        {
          "internalType": "address",
          "name": "user",
          "type": "address"
        }
      ],
      "name": "getScore",
      "outputs": [
        {
          "internalType": "uint16",
          "name": "",
          "type": "uint16"
        }
      ],
      "stateMutability": "view",
      "type": "function"
    },
    {
      "inputs": [],
      "name": "owner",
      "outputs": [
        {
          "internalType": "address",
          "name": "",
          "type": "address"
        }
      ],
      "stateMutability": "view",
      "type": "function"
    },
    {
      "inputs": [],
      "name": "pendingOwner",
      "outputs": [
        {
          "internalType": "address",
          "name": "",
          "type": "address"
        }
      ],
      "stateMutability": "view",
      "type": "function"
    },
    {
      "inputs": [],
      "name": "renounceOwnership",
      "outputs": [],
      "stateMutability": "nonpayable",
      "type": "function"
    },
    {
      "inputs": [
        {
          "internalType": "address",
          "name": "activity_",
          "type": "address"
        }
      ],
      "name": "setActivity",
      "outputs": [],
      "stateMutability": "nonpayable",
      "type": "function"
    },
    {
      "inputs": [
        {
          "internalType": "address",
          "name": "newOwner",
          "type": "address"
        }
      ],
      "name": "transferOwnership",
      "outputs": [],
      "stateMutability": "nonpayable",
      "type": "function"
    }
  ],
  "bytecode": "0x6080806040523461006357600180546001600160a01b03199081169091556000805433928116831782556001600160a01b0316907f8be0079c531659141344cd1fd0a4f28419497f9722a3daafe3b4186f6b6457e09080a36114e090816100698239f35b600080fdfe60406080815260048036101561001457600080fd5b600091823560e01c908163715018a61461122557816379ba5097146111655781638da5cb5b1461113d578163d47875d014610151578163e30c39781461012857508063e3f43fdb146100e05763f2fde38b1461006f57600080fd5b346100dc5760203660031901126100dc57356001600160a01b03818116918290036100d85761009c61128a565b600180546001600160a01b031916831790558254167f38d16b8cac22d99fc7c124b9cd0de2d3fa1faef420bfe791d8c362d765e227008380a380f35b8280fd5b5080fd5b50346100dc5760203660031901126100dc57356001600160a01b038116908190036100dc5761010d61128a565b6bffffffffffffffffffffffff60a01b600254161760025580f35b8390346100dc57816003193601126100dc5760015490516001600160a01b039091168152602090f35b9050823461113a57602092836003193601126100dc576001600160a01b038135818116939192908490036100dc576002805486516333689fdb60e11b8152838101879052936024929091861661016080878681855afa96871561064057849761105b575b505082908951986325116b8160e21b92838b5281888c01528c8b8881865afa9a8b1561105157869b611016575b508461ffff809c1611600014610ecf576101fb906113c6565b8b5184815282898201528d818981875afa90811561068d5786918d918991610e96575b50161115610cb55761022f906113d9565b8b5184815282898201528d818981875afa90811561068d5786918d918991610c7c575b50161115610b3157610263906113b3565b8b5184815282898201528d818981875afa90811561068d5786918d918991610af8575b5016111561091857610297906113b3565b8b5184815282898201528d818981875afa90811561068d5786918d9189916108df575b501611156106d0576102cb906113c6565b925b8b5181815282898201528d818981875afa90811561068d5786918d918991610697575b5016111561046657505050906103076080926113d9565b905b60e087015189168061043757505061032090611390565b610100860151806103f6575061033590611390565b955b421694018051801560001461035e57505050505050610355906113a0565b915b5191168152f35b6213c68081018091116103e45785101561038657505050505061038090611390565b91610357565b80516220f58081018091116103e4578510156103aa5750505050506103809061136a565b5192623b538084018094116103d45750505011156103cb576103809061145e565b610380906113b3565b634e487b7160e01b825260119052fd5b5050634e487b7160e01b815260118352fd5b6801158e460913d0000081116104165750610410906113c6565b95610337565b6802b5e3af16b18800001061042e5761041090611497565b61041090611484565b6001810361044f57505061044a906113c6565b610320565b0361045d5761044a90611497565b61044a90611484565b8b5181815282898201528d818981875afa90811561068d5791868f94938a938f918b9161064a575b5016036104ac575050505050906104a66080926113c6565b90610309565b8d51948593849283528b8301525afa9081156106405790899185916105fa575b506080939291166001036104e3576104a6906113b3565b60c0870151680821ab0d441498000081111561050357506104a690611390565b68068155a43676e0000081111561051e57506104a69061137d565b68056bc75e2d6310000081111561053957506104a69061136a565b6804563918244f40000081111561055457506104a690611357565b680340aad21b3b70000081111561056f57506104a69061132e565b680270801d946c94000081111561058a57506104a6906113b3565b68015af1d78b58c400008111156105a557506104a690611425565b67d02ab486cedc00008111156105bf57506104a690611412565b678ac7230489e800008111156105d957506104a6906113ff565b674563918244f4000010156105f1576104a6906113ec565b6104a6906113d9565b8092508c8092503d8311610639575b61061381836112e2565b81010312610635579060018961062b6080959461131a565b91509192936104cc565b8380fd5b503d610609565b8a513d86823e3d90fd5b9450505050919281813d8311610686575b61066581836112e2565b81010312610682578d9291868d61067c8b9461131a565b3861048e565b8680fd5b503d61065b565b8d513d89823e3d90fd5b925050508d81813d83116106c9575b6106b081836112e2565b81010312610682578b6106c3879261131a565b386102f0565b503d6106a6565b8b5184815282898201528d818981875afa90811561068d5786918d9189916108a6575b50160361070957610703906113b3565b926102cd565b8b5184815282898201528d818981875afa801561068d578c90889061086f575b1660011415905061073d57610703906113a0565b8a60a08a01516907695a92c20d6fe00000811160001461076257505061070390611390565b69054b40b1f852bda0000081111561077f57505061070390611471565b6903635c9adc5dea00000081111561079c5750506107039061137d565b69028a857425466f8000008111156107b957505061070390611438565b6901e7e4171bf4d3a000008111156107d6575050610703906113a0565b69014542ba12a337c000008111156107f35750506107039061145e565b68bdbc41e0348b30000081111561080f5750506107039061144b565b686c6b935b8bbd400000811115610844575016600b018a811161083257926102cd565b634e487b7160e01b8652601188528686fd5b681b1ae4d6e2ef50000010156108655716600d018a811161083257926102cd565b50610703906113c6565b50508d81813d831161089f575b61088681836112e2565b81010312610682578b61089a60019261131a565b610729565b503d61087c565b925050508d81813d83116108d8575b6108bf81836112e2565b81010312610682578b6108d2879261131a565b386106f3565b503d6108b5565b925050508d81813d8311610911575b6108f881836112e2565b81010312610682578b61090b879261131a565b386102ba565b503d6108ee565b8b5184815282898201528d818981875afa90811561068d5786918d918991610abf575b5016036109505761094b9061132e565b610297565b8b5184815282898201528d818981875afa801561068d578c908890610a88575b166001141590506109845761094b90611357565b888c01516907695a92c20d6fe000008111156109a4575061094b90611390565b69054b40b1f852bda000008111156109c0575061094b90611471565b6903635c9adc5dea0000008111156109dc575061094b9061137d565b69028a857425466f8000008111156109f8575061094b90611438565b6901e7e4171bf4d3a00000811115610a14575061094b9061136a565b69014542ba12a337c00000811115610a30575061094b90611357565b68bdbc41e0348b300000811115610a4b575061094b9061145e565b686c6b935b8bbd400000811115610a66575061094b9061132e565b681b1ae4d6e2ef5000001015610a7f5761094b9061144b565b61094b906113b3565b50508d81813d8311610ab8575b610a9f81836112e2565b81010312610682578b610ab360019261131a565b610970565b503d610a95565b925050508d81813d8311610af1575b610ad881836112e2565b81010312610682578b610aeb879261131a565b3861093b565b503d610ace565b925050508d81813d8311610b2a575b610b1181836112e2565b81010312610682578b610b24879261131a565b38610286565b503d610b07565b8b5184815282898201528d818981875afa90811561068d5786918d918991610c43575b501603610b6957610b6490611357565b610263565b8b5184815282898201528d818981875afa801561068d578c908890610c0c575b16600114159050610b9d57610b6490611438565b848b8a5116601a8111600014610bb8575050610b6490611390565b6012811115610bcc575050610b649061137d565b600a811115610be0575050610b649061136a565b6005811115610bf4575050610b6490611357565b1115610c0357610b649061132e565b610b64906113b3565b50508d81813d8311610c3c575b610c2381836112e2565b81010312610682578b610c3760019261131a565b610b89565b503d610c19565b925050508d81813d8311610c75575b610c5c81836112e2565b81010312610682578b610c6f879261131a565b38610b54565b503d610c52565b925050508d81813d8311610cae575b610c9581836112e2565b81010312610682578b610ca8879261131a565b38610252565b503d610c8b565b8b5184815282898201528d818981875afa90811561068d5786918d918991610e5d575b501603610ced57610ce8906113c6565b61022f565b8b5184815282898201528d818981875afa801561068d578c908890610e26575b16600114159050610d2157610ce8906113b3565b60608901516907695a92c20d6fe00000811115610d425750610ce890611390565b69054b40b1f852bda00000811115610d5e5750610ce890611438565b6903635c9adc5dea000000811115610d7a5750610ce890611357565b69028a857425466f800000811115610d965750610ce89061132e565b6901e7e4171bf4d3a00000811115610db25750610ce8906113b3565b69014542ba12a337c00000811115610dce5750610ce890611425565b68bdbc41e0348b300000811115610de95750610ce890611412565b686c6b935b8bbd400000811115610e045750610ce8906113ff565b681b1ae4d6e2ef5000001015610e1d57610ce8906113ec565b610ce8906113d9565b50508d81813d8311610e56575b610e3d81836112e2565b81010312610682578b610e5160019261131a565b610d0d565b503d610e33565b925050508d81813d8311610e8f575b610e7681836112e2565b81010312610682578b610e89879261131a565b38610cd8565b503d610e6c565b925050508d81813d8311610ec8575b610eaf81836112e2565b81010312610682578b610ec2879261131a565b3861021e565b503d610ea5565b8b5184815282898201528d818981875afa90811561068d5786918d918991610fdd575b501603610f0757610f02906113b3565b6101fb565b8b5184815282898201528d818981875afa801561068d578c908890610fa6575b16600114159050610f3b57610f02906113a0565b888d01518b16601e811115610f545750610f0290611390565b6015811115610f675750610f029061137d565b600d811115610f7a5750610f029061136a565b6007811115610f8d5750610f0290611357565b60031015610f9e57610f029061132e565b50600a6101fb565b50508d81813d8311610fd6575b610fbd81836112e2565b81010312610682578b610fd160019261131a565b610f27565b503d610fb3565b925050508d81813d831161100f575b610ff681836112e2565b81010312610682578b611009879261131a565b38610ef2565b503d610fec565b909a508c81813d831161104a575b61102e81836112e2565b810103126110465761103f9061131a565b998d6101e2565b8580fd5b503d611024565b8c513d88823e3d90fd5b908092975081813d8311611133575b61107481836112e2565b8101031261063557895191820182811067ffffffffffffffff821117611121578a5261109f8161131a565b82526110ac8b820161131a565b8b830152898101518a830152606081015160608301526080810151608083015260a081015160a083015260c081015160c08301526110ec60e0820161131a565b60e08301526101008082015190830152610120808201519083015261111561014080920161131a565b90820152948a806101b5565b634e487b7160e01b8552604187528585fd5b503d61106a565b80fd5b8390346100dc57816003193601126100dc57905490516001600160a01b039091168152602090f35b9050346100d857826003193601126100d857600154916001600160a01b039133838516036111d05750506001600160a01b031991821660015582543392811683178455167f8be0079c531659141344cd1fd0a4f28419497f9722a3daafe3b4186f6b6457e08380a380f35b906020608492519162461bcd60e51b8352820152602960248201527f4f776e61626c6532537465703a2063616c6c6572206973206e6f7420746865206044820152683732bb9037bbb732b960b91b6064820152fd5b833461113a578060031936011261113a5761123e61128a565b600180546001600160a01b03199081169091558154908116825581906001600160a01b03167f8be0079c531659141344cd1fd0a4f28419497f9722a3daafe3b4186f6b6457e08280a380f35b6000546001600160a01b0316330361129e57565b606460405162461bcd60e51b815260206004820152602060248201527f4f776e61626c653a2063616c6c6572206973206e6f7420746865206f776e65726044820152fd5b90601f8019910116810190811067ffffffffffffffff82111761130457604052565b634e487b7160e01b600052604160045260246000fd5b519061ffff8216820361132957565b600080fd5b90600861ffff8093160191821161134157565b634e487b7160e01b600052601160045260246000fd5b90600661ffff8093160191821161134157565b90600461ffff8093160191821161134157565b90600261ffff8093160191821161134157565b9061ffff80921691821161134157565b90600561ffff8093160191821161134157565b90600a61ffff8093160191821161134157565b90600f61ffff8093160191821161134157565b90601461ffff8093160191821161134157565b90601261ffff8093160191821161134157565b90601061ffff8093160191821161134157565b90600e61ffff8093160191821161134157565b90600c61ffff8093160191821161134157565b90600361ffff8093160191821161134157565b90600961ffff8093160191821161134157565b90600761ffff8093160191821161134157565b90600161ffff8093160191821161134157565b90603261ffff8093160191821161134157565b90601961ffff809316019182116113415756fea2646970667358221220a13137ea60443c788e313b65a00b882879fd21323a4cc81f9a915cdd1cc0860a64736f6c63430008130033",
  "linkReferences": {},
  "deployedLinkReferences": {}
}