{
  "_format": "hh-sol-artifact-1",
  "contractName": "LoanToValueRatio",
  "sourceName": "src/LoanToValueRatio.sol",
  "address": "",
  "abi": [
    {
      "inputs": [],
      "stateMutability": "nonpayable",
      "type": "constructor"
    },
    {
      "anonymous": false,
      "inputs": [
        {
          "indexed": true,
          "internalType": "address",
          "name": "previousOwner",
          "type": "address"
        },
        {
          "indexed": true,
          "internalType": "address",
          "name": "newOwner",
          "type": "address"
        }
      ],
      "name": "OwnershipTransferStarted",
      "type": "event"
    },
    {
      "anonymous": false,
      "inputs": [
        {
          "indexed": true,
          "internalType": "address",
          "name": "previousOwner",
          "type": "address"
        },
        {
          "indexed": true,
          "internalType": "address",
          "name": "newOwner",
          "type": "address"
        }
      ],
      "name": "OwnershipTransferred",
      "type": "event"
    },
    {
      "inputs": [],
      "name": "acceptOwnership",
      "outputs": [],
      "stateMutability": "nonpayable",
      "type": "function"
    },
    {
      "inputs": [],
      "name": "base",
      "outputs": [
        {
          "internalType": "uint8",
          "name": "",
          "type": "uint8"
        }
      ],
      "stateMutability": "view",
      "type": "function"
    },
    {
      "inputs": [],
      "name": "darshScorePrice0",
      "outputs": [
        {
          "internalType": "uint256",
          "name": "",
          "type": "uint256"
        }
      ],
      "stateMutability": "view",
      "type": "function"
    },
    {
      "inputs": [],
      "name": "darshScorePrice1",
      "outputs": [
        {
          "internalType": "uint256",
          "name": "",
          "type": "uint256"
        }
      ],
      "stateMutability": "view",
      "type": "function"
    },
    {
      "inputs": [],
      "name": "getBase",
      "outputs": [
        {
          "internalType": "uint8",
          "name": "",
          "type": "uint8"
        }
      ],
      "stateMutability": "pure",
      "type": "function"
    },
    {
      "inputs": [
        {
          "internalType": "address",
          "name": "user",
          "type": "address"
        }
      ],
      "name": "getLTV",
      "outputs": [
        {
          "internalType": "uint160",
          "name": "",
          "type": "uint160"
        }
      ],
      "stateMutability": "view",
      "type": "function"
    },
    {
      "inputs": [
        {
          "internalType": "address",
          "name": "user",
          "type": "address"
        },
        {
          "internalType": "uint256",
          "name": "amount",
          "type": "uint256"
        }
      ],
      "name": "getRelativeLTV",
      "outputs": [
        {
          "internalType": "uint160",
          "name": "",
          "type": "uint160"
        }
      ],
      "stateMutability": "view",
      "type": "function"
    },
    {
      "inputs": [],
      "name": "owner",
      "outputs": [
        {
          "internalType": "address",
          "name": "",
          "type": "address"
        }
      ],
      "stateMutability": "view",
      "type": "function"
    },
    {
      "inputs": [],
      "name": "pendingOwner",
      "outputs": [
        {
          "internalType": "address",
          "name": "",
          "type": "address"
        }
      ],
      "stateMutability": "view",
      "type": "function"
    },
    {
      "inputs": [],
      "name": "renounceOwnership",
      "outputs": [],
      "stateMutability": "nonpayable",
      "type": "function"
    },
    {
      "inputs": [
        {
          "internalType": "address",
          "name": "trustScore_",
          "type": "address"
        },
        {
          "internalType": "uint160",
          "name": "minLTV_",
          "type": "uint160"
        },
        {
          "internalType": "uint160",
          "name": "maxLTV_",
          "type": "uint160"
        }
      ],
      "name": "setDarshScore",
      "outputs": [],
      "stateMutability": "nonpayable",
      "type": "function"
    },
    {
      "inputs": [
        {
          "internalType": "address",
          "name": "newOwner",
          "type": "address"
        }
      ],
      "name": "transferOwnership",
      "outputs": [],
      "stateMutability": "nonpayable",
      "type": "function"
    }
  ],
  "bytecode": "0x60808060405234610091576104b060018060a01b031980600154166001556000543382821617600055339060018060a01b03167f8be0079c531659141344cd1fd0a4f28419497f9722a3daafe3b4186f6b6457e0600080a36103e88160035416176003556004541617600455683635c9adc5dea0000060055568a2a15d09519be0000060065561068c90816100978239f35b600080fdfe6080604090808252600436101561001557600080fd5b600091823560e01c9182635001f3b51461041757508163715018a6146103b257816379ba5097146102f35781638a83f8cc146102ca5781638da5cb5b146102a2578163971c7899146101d5578163aca25f9a1461019e578163add10ed51461017f578163d104a13614610163578163e30c39781461013a578163e6d98fde14610117575063f2fde38b146100a857600080fd5b34610114576020366003190112610114576100c1610432565b6100c961044d565b600180546001600160a01b0319166001600160a01b0392831690811790915582549091167f38d16b8cac22d99fc7c124b9cd0de2d3fa1faef420bfe791d8c362d765e227008380a380f35b80fd5b9050346101365781600319360112610136576020906006549051908152f35b5080fd5b90503461013657816003193601126101365760015490516001600160a01b039091168152602090f35b90503461013657816003193601126101365760209051600a8152f35b9050346101365781600319360112610136576020906005549051908152f35b905034610136576020366003190112610136576020906101c46101bf610432565b610564565b90516001600160a01b039091168152f35b905034610136576060366003190112610136576101f0610432565b6001600160a01b036024358181169391929184820361029e57604435948486169081870361029a5761022061044d565b101561026d5750610256836102358193610541565b16946bffffffffffffffffffffffff60a01b95866003541617600355610541565b168360045416176004551690600254161760025580f35b5162461bcd60e51b815260206004820152600760248201526622a9292fa62a2b60c91b6044820152606490fd5b8780fd5b8580fd5b905034610136578160031936011261013657905490516001600160a01b039091168152602090f35b9050346101365780600319360112610136576020906101c46102ea610432565b602435906104d4565b905034610136578160031936011261013657600154906001600160a01b0390338284160361035d57506001600160a01b031991821660015582543392811683178455167f8be0079c531659141344cd1fd0a4f28419497f9722a3daafe3b4186f6b6457e08380a380f35b5162461bcd60e51b815260206004820152602960248201527f4f776e61626c6532537465703a2063616c6c6572206973206e6f7420746865206044820152683732bb9037bbb732b960b91b6064820152608490fd5b82346101145780600319360112610114576103cb61044d565b600180546001600160a01b03199081169091558154908116825581906001600160a01b03167f8be0079c531659141344cd1fd0a4f28419497f9722a3daafe3b4186f6b6457e08280a380f35b83903461013657816003193601126101365780600a60209252f35b600435906001600160a01b038216820361044857565b600080fd5b6000546001600160a01b0316330361046157565b606460405162461bcd60e51b815260206004820152602060248201527f4f776e61626c653a2063616c6c6572206973206e6f7420746865206f776e65726044820152fd5b6001600160a01b0391821690821601919082116104be57565b634e487b7160e01b600052601160045260246000fd5b6104dd90610564565b90600654811161053057600554106104f25790565b6004546003546001600160a01b039160016001609f1b0391610519919084169084166104a5565b60011c1680918316111561052b575090565b905090565b50506004546001600160a01b031690565b6001600160a01b03908116600a818102909216929181840414901517156104be57565b600254604051630d47875d60e41b81526001600160a01b039283166004820152906020908290602490829086165afa90811561064a576000916105e4575b50908060045416908060035416809203928184116104be5761ffff829116931690838202169281840414901517156104be5760646105e19204906104a5565b90565b60203d8111610643575b601f8101601f1916820167ffffffffffffffff81118382101761062f5760209183916040528101031261013657519061ffff821682036101145750386105a2565b634e487b7160e01b84526041600452602484fd5b503d6105ee565b6040513d6000823e3d90fdfea2646970667358221220b382a1bd413eed429517480df0457e304ed95e634fc16bc506bb9ce1c1f5403464736f6c63430008130033",
  "linkReferences": {},
  "deployedLinkReferences": {}
}